:060000000A128A110C280F
:10000800FE00030EF2000A08F3000A128A111528EE
:100018000A128A110F28F001F10183010A128A11CC
:100028004F280B1D1828192831280630831203136E
:1000380081000130F0070318F10A0030F107E230BF
:100048007006043003197106031D2B282C2830284C
:10005800F001F101013088060B1173088A00720E55
:100068008300FE0E7E0E0900831203138801831697
:10007800031388010A128A1145200A128A118B1764
:1000880008008316031381128115063083120313A7
:1000980081008B1608000A128A1138200A128A1168
:0800A80054280A128A110C28E9
:08400000FF3FFF3FFF3FFF3FC0
:02400E00FB3F76
:00000001FF
